Archive member included because of file (symbol)

c:/winavr/bin/../lib/gcc/avr/3.4.1/avr4\libgcc.a(_copy_data.o)
                              D:\DOCUME~1\Pasha\LOCALS~1\Temp/cc69aaaa.o (__do_copy_data)
c:/winavr/bin/../lib/gcc/avr/3.4.1/avr4\libgcc.a(_clear_bss.o)
                              D:\DOCUME~1\Pasha\LOCALS~1\Temp/cc69aaaa.o (__do_clear_bss)

Allocating common symbols
Common symbol       size              file

delay_msec          0x2               D:\DOCUME~1\Pasha\LOCALS~1\Temp/cc69aaaa.o

Memory Configuration

Name             Origin             Length             Attributes
text             0x00000000         0x00002000         xr
data             0x00800060         0x0000ffa0         rw !x
eeprom           0x00810000         0x00010000         rw !x
*default*        0x00000000         0xffffffff

Linker script and memory map

LOAD c:/winavr/bin/../lib/gcc/avr/3.4.1/../../../../avr/lib/avr4/crtm8515.o
LOAD D:\DOCUME~1\Pasha\LOCALS~1\Temp/cc69aaaa.o
LOAD c:/winavr/bin/../lib/gcc/avr/3.4.1/avr4\libgcc.a
LOAD c:/winavr/bin/../lib/gcc/avr/3.4.1/../../../../avr/lib/avr4\libc.a
LOAD c:/winavr/bin/../lib/gcc/avr/3.4.1/avr4\libgcc.a

.hash
 *(.hash)

.dynsym
 *(.dynsym)

.dynstr
 *(.dynstr)

.gnu.version
 *(.gnu.version)

.gnu.version_d
 *(.gnu.version_d)

.gnu.version_r
 *(.gnu.version_r)

.rel.init
 *(.rel.init)

.rela.init
 *(.rela.init)

.rel.text
 *(.rel.text)
 *(.rel.text.*)
 *(.rel.gnu.linkonce.t*)

.rela.text
 *(.rela.text)
 *(.rela.text.*)
 *(.rela.gnu.linkonce.t*)

.rel.fini
 *(.rel.fini)

.rela.fini
 *(.rela.fini)

.rel.rodata
 *(.rel.rodata)
 *(.rel.rodata.*)
 *(.rel.gnu.linkonce.r*)

.rela.rodata
 *(.rela.rodata)
 *(.rela.rodata.*)
 *(.rela.gnu.linkonce.r*)

.rel.data
 *(.rel.data)
 *(.rel.data.*)
 *(.rel.gnu.linkonce.d*)

.rela.data
 *(.rela.data)
 *(.rela.data.*)
 *(.rela.gnu.linkonce.d*)

.rel.ctors
 *(.rel.ctors)

.rela.ctors
 *(.rela.ctors)

.rel.dtors
 *(.rel.dtors)

.rela.dtors
 *(.rela.dtors)

.rel.got
 *(.rel.got)

.rela.got
 *(.rela.got)

.rel.bss
 *(.rel.bss)

.rela.bss
 *(.rela.bss)

.rel.plt
 *(.rel.plt)

.rela.plt
 *(.rela.plt)

.text           0x00000000      0x1ba
 *(.vectors)
 .vectors       0x00000000       0x22 c:/winavr/bin/../lib/gcc/avr/3.4.1/../../../../avr/lib/avr4/crtm8515.o
                0x00000000                __vectors
                0x00000000                __vector_default
                0x00000022                __ctors_start = .
 *(.ctors)
                0x00000022                __ctors_end = .
                0x00000022                __dtors_start = .
 *(.dtors)
                0x00000022                __dtors_end = .
 *(.progmem.gcc*)
 *(.progmem*)
                0x00000022                . = ALIGN (0x2)
 *(.init0)
 *(.init1)
 *(.init2)
 .init2         0x00000022        0xc c:/winavr/bin/../lib/gcc/avr/3.4.1/../../../../avr/lib/avr4/crtm8515.o
 *(.init3)
 *(.init4)
 .init4         0x0000002e       0x16 c:/winavr/bin/../lib/gcc/avr/3.4.1/avr4\libgcc.a(_copy_data.o)
                0x0000002e                __do_copy_data
 .init4         0x00000044       0x10 c:/winavr/bin/../lib/gcc/avr/3.4.1/avr4\libgcc.a(_clear_bss.o)
                0x00000044                __do_clear_bss
 *(.init5)
 *(.init6)
 *(.init7)
 *(.init8)
 *(.init9)
 .init9         0x00000054        0x2 c:/winavr/bin/../lib/gcc/avr/3.4.1/../../../../avr/lib/avr4/crtm8515.o
 *(.text)
 .text          0x00000056        0x2 c:/winavr/bin/../lib/gcc/avr/3.4.1/../../../../avr/lib/avr4/crtm8515.o
                0x00000056                __vector_1
                0x00000056                __vector_12
                0x00000056                __bad_interrupt
                0x00000056                __vector_6
                0x00000056                __vector_3
                0x00000056                __vector_11
                0x00000056                __vector_13
                0x00000056                __vector_7
                0x00000056                __vector_5
                0x00000056                __vector_9
                0x00000056                __vector_2
                0x00000056                __vector_15
                0x00000056                __vector_8
                0x00000056                __vector_14
                0x00000056                __vector_10
                0x00000056                __vector_16
 .text          0x00000058      0x162 D:\DOCUME~1\Pasha\LOCALS~1\Temp/cc69aaaa.o
                0x00000138                main
                0x0000007e                __vector_4
                0x00000060                delay
                0x000000e6                hardware_init
                0x00000058                delay16
                0x000001ba                . = ALIGN (0x2)
 *(.text.*)
                0x000001ba                . = ALIGN (0x2)
 *(.fini9)
 *(.fini8)
 *(.fini7)
 *(.fini6)
 *(.fini5)
 *(.fini4)
 *(.fini3)
 *(.fini2)
 *(.fini1)
 *(.fini0)
                0x000001ba                _etext = .

.data           0x00800060       0x16 load address 0x000001ba
                0x00800060                PROVIDE (__data_start, .)
 *(.data)
 .data          0x00800060       0x16 D:\DOCUME~1\Pasha\LOCALS~1\Temp/cc69aaaa.o
                0x0080006e                LED_REG
                0x0080006a                pB
                0x00800060                need_zoom
                0x00800072                righti
                0x00800064                kbc1
                0x00800062                kbc2
                0x00800074                lefti
                0x00800070                dotsi
                0x00800068                pC
                0x0080006c                pA
                0x00800066                kbc0
 *(.gnu.linkonce.d*)
                0x00800076                . = ALIGN (0x2)
                0x00800076                _edata = .
                0x00800076                PROVIDE (__data_end, .)

.bss            0x00800076        0x2
                0x00800076                PROVIDE (__bss_start, .)
 *(.bss)
 *(COMMON)
 COMMON         0x00800076        0x2 D:\DOCUME~1\Pasha\LOCALS~1\Temp/cc69aaaa.o
                                  0x0 (size before relaxing)
                0x00800076                delay_msec
                0x00800078                PROVIDE (__bss_end, .)
                0x000001ba                __data_load_start = LOADADDR (.data)
                0x000001d0                __data_load_end = (__data_load_start + SIZEOF (.data))

.noinit         0x00800078        0x0
                0x00800078                PROVIDE (__noinit_start, .)
 *(.noinit*)
                0x00800078                PROVIDE (__noinit_end, .)
                0x00800078                _end = .
                0x00800078                PROVIDE (__heap_start, .)

.eeprom         0x00810000        0x0 load address 0x000001d0
 *(.eeprom*)
                0x00810000                __eeprom_end = .

.stab
 *(.stab)

.stabstr
 *(.stabstr)

.stab.excl
 *(.stab.excl)

.stab.exclstr
 *(.stab.exclstr)

.stab.index
 *(.stab.index)

.stab.indexstr
 *(.stab.indexstr)

.comment
 *(.comment)

.debug
 *(.debug)

.line
 *(.line)

.debug_srcinfo
 *(.debug_srcinfo)

.debug_sfnames
 *(.debug_sfnames)

.debug_aranges
 *(.debug_aranges)

.debug_pubnames
 *(.debug_pubnames)

.debug_info
 *(.debug_info)
 *(.gnu.linkonce.wi.*)

.debug_abbrev
 *(.debug_abbrev)

.debug_line
 *(.debug_line)

.debug_frame
 *(.debug_frame)

.debug_str
 *(.debug_str)

.debug_loc
 *(.debug_loc)

.debug_macinfo
 *(.debug_macinfo)
OUTPUT(main.elf elf32-avr)
