:0400000002022F3297
:0100040032C9
:01000C0032C1
:0100140032B9
:01001C0032B1
:0100240032A9
:0B022F007581111201DEE58260030200
:05023A000033740044D4
:06023F0000602974942404
:0502450000F974023411
:06024A0000FA9002947816
:0C0250000075A000E493F2A308B80002BF
:0E025C0005A0E582B501F1E583B502EC75A0C1
:0E026A00FF90C000E4F090A004E4F090A00625
:0E027800E4F09080037480F0908000E4F09039
:0B028600800174FFF090800274FFF014
:0302910002003335
:0E00330012018880FEAA82AB831ABAFF011B5D
:0E004100EA4B70F72278009090FEE030E01558
:0E004F000830E1110830E20D0830E30908E541
:0E005D008223F582B4F7E7888222120046E57E
:0C006B0082FAB508028002800C0509E54D
:0C00770009600280078A82800875090079
:0C0083008A0875820C2290A006E4F09020
:0E008F008000F0908001F090800274FFF090ED
:0D009D00A004740FF022AA82AB837C0A7DC0
:0C00AA00008C007C04E4F510750F0A8A3D
:0E00B600828B83C002C003C004C005C00012CC
:0E00C40001E2AE82AF83D000D005D004D0039D
:0C00D200D002E4F510750F0A8A828B83BF
:0D00DE00C002C003C004C005C006C000126F
:0E00EB0001B5E5828583F0D000D006D005D0A7
:0E00F90004D003D002FAABF0A60608DC0280A9
:0E010700030200AF7A03188603EB700AED25A1
:0D011500E0FB74014BFDDAF090A004E50E54
:0C0122004DF0E50DC454F0FAE50C42026B
:0C012E0090A000EAF0E50BC454F0FAE5E4
:0D013A000A420290A001EAF02230B2093022
:0E014700B30690A00474FFF020B21190A00443
:0E015500E4F090A0007432F090B0007432F02C
:0E01630020B31190A004E4F090A0007433F0DB
:0D01710090B0007433F09003E812003812D3
:0E017E000046AA82BA0C0280BC2290A0007437
:0E018C0012F090B0007434F090A004E4F01271
:0D019A000046AA82BA0C0050E5904E2012DB
:0901A7000038120143904E2012B1
:0501B000003880D4229C
:0501B5007A10E4FBFCE0
:0E01BA00E58225E0F582E58333F583EB33FB28
:0C01C800EC33FCEB950FF5F0EC951040CB
:0701D40006FCABF0438201C1
:0301DB00DADD2248
:0301DE0075820027
:0101E10022FB
:0801E200E50F451060467A01AB
:0701EA00E50F25E0F50FE52C
:0901F10010334012F510E582956F
:0A01FA000FE583951040030A80E62C
:03020400C3E5103F
:0702070013F510E50F13F5DC
:01020E000FE0
:0C020F00C3E582950FF5F0E583951040E3
:06021B0005F58385F08269
:07022100C3E51013F510E521
:060228000F13F50FDAE1EF
:01022E0022AD
:00000001FF
