:040000000208583268
:0100040032C9
:01000C0032C1
:0100140032B9
:01001C0032B1
:0100240032A9
:0B08580075811B1207DCE582600302C3
:050863000033740044A5
:0608680000602974C224A7
:05086E0000F9740834DC
:0608730000FA9008C278B3
:0C0879000075A000E493F2A308B8000290
:0E08850005A0E582B501F1E583B502EC75A092
:0E089300FF90C000E4F090A004E4F090A006F6
:0E08A100E4F09080037480F0908000E4F0900A
:0E08AF00800174FFF090800274FFF090C00092
:0208BD00E4F065
:0308BF0002003301
:0E00330012070380FEAA82AB831ABAFF011BDC
:0E004100EA4B70F72278009090FEE030E01558
:0E004F000830E1110830E20D0830E30908E541
:0E005D008223F582B4F7E7888222120046E57E
:0C006B0082FAB508028002800C0509E54D
:0C00770009600280078A82800875090079
:0C0083008A0875820C2290A006E4F09020
:0E008F008000F0908001F090800274FFF090ED
:0D009D00A004740FF022AA82AB837C0A7DC0
:0C00AA00008C007C04E4F51A75190A8A29
:0E00B600828B83C002C003C004C005C00012CC
:0E00C40007E0AE82AF83D000D005D004D00399
:0C00D200D002E4F51A75190A8A828B83AB
:0D00DE00C002C003C004C005C006C000126F
:0E00EB0007B3E5828583F0D000D006D005D0A3
:0E00F90004D003D002FAABF0A60608DC0280A9
:0E010700030200AF7A03188603EB700AED25A1
:0D011500E0FB74014BFDDAF090A004E50E54
:0C0122004DF0E50DC454F0FAE50C42026B
:0C012E0090A000EAF0E50BC454F0FAE5E4
:0D013A000A420290A001EAF02290753012F6
:0E01470000389080047430F09001C21200382D
:0D0155009080047430F090009612003890F5
:0E01620080047430F0900096120038908004F3
:0E0170007448F0900096120038908005740CD0
:0E017E00F09000961200389080057412F090F8
:0E018C000096120038908005740CF0900096DA
:0E019A00120038908005E4F0900096120038B4
:0E01A800908005E4F0900096120038908005DB
:0E01B600E4F0900096120038908005E4F0907E
:0E01C4000096120038908005E4F0229000961C
:0D01D2001200389080047438F090009612EE
:0E01DF000038908004740CF0900096120038E6
:0D01ED009080047406F09000961200389087
:0E01FA0080047401F09000961200389080048A
:0D0208007438F022AA82C3740395194028AF
:07021500E51925E025199011
:07021C00021F7302022B0216
:0602230002300202350268
:08022900023A751900800D7501
:0A0231001940800875190A80037552
:0C023B00194AE50225199080044480F067
:0502470022850F1912D1
:05024C00020CAA10AB3A
:0A02510011AC128A828B838CF0122C
:0D025B00082DFDA3AA82AB83ACF08D068EAA
:0D0268000FED601FC3747F9E5011EE2480C7
:0C0275002433F58274073400F583E49311
:0C028100F50F908005E50FF080C922D237
:0E028D0090D2917A03DAFEC2907A03DAFEC2B2
:0E029B00917A03DAFE22C290D2917A03DAFE43
:0E02A900D2907A03DAFEC2917A03DAFE22AA1C
:0E02B700827B007C08EAA2E79290EA25E0FA3A
:0E02C500D2917D03DDFEC2917D03DDFEDCE9FA
:0E02D300D290D2917A03DAFE2090027B01C213
:0E02E100917A03DAFE8B8222AA827B00D290F1
:0E02EF007C08EB25E0FBD2917D03DDFEE4A24E
:0E02FD009033FD4203C2917D03DDFEDCE7EA93
:0E030B006002C290D2917A03DAFEC291D290C3
:0E0319007A03DAFE8B822212028C7582A01209
:0C03270002B67582001202B67582001248
:0603330002B61202A11245
:0E033900028C7582A01202B62290A004E4F09D
:0C0347007A3FE4FBF518751740C002C0B7
:0D03530003120320E582D003D002600302F4
:060360000516751600E50C
:08036600174202E5184203E50D
:06036E0018C51725E0C5CB
:0C0374001733F5188B0778008A01890602
:0D038000E93395E0FCEE6207EC62008F159A
:0E038D00C002C003C00112028CD001D003D008
:0E039B00028A05EBA2E7CD33CD33CD5401FE2F
:0E03A900740E5DFF78004307A08F82C002C073
:0E03B70003C005C006C0011202B6D001D00678
:0E03C500D005D003D0028982C002C003C0055B
:0E03D300C006C0011202B6D001D006D005D07F
:0D03E10003D002851582C002C003C005C014
:0E03EE0006C0011202B6D001D006D005D00321
:0D03FC00D002C002C003C005C006C001123F
:0E04090002A1D001D006D005D003D002D292BD
:0D041700740E5DFF78004307A0751300050B
:0D04240013C002C003C005C006C007C00021
:0E043100C00112028CD001D000D007D006D03E
:0E043F0005D003D0028F82C002C003C005C0EA
:0E044D0006C007C000C0011202B6E582D00151
:0E045B00D000D007D006D005D003D002FC7030
:0D04690004E51370B5C2928982C002C00381
:0E047600C004C005C0061202B6D006D005D0E4
:0E04840004D003D002C002C003C004C005C0F3
:0E0492000612028CD006D005D004D003D00292
:0E04A00053050E7E004305A18D82C002C003ED
:0E04AE00C0041202B6D004D003D00275820042
:0E04BC00C002C003C0041202E9E582D004D0E1
:0C04CA0003D002F514C002C003C00412ED
:0B04D60002A1D004D003D002E515B550
:0804E100140280030206BE05AF
:0B04E9001690B000E513F090A000E5B5
:0C04F40016F0907530C002C003C0041266
:0E0500000038D004D003D002BAFF05BB0702BA
:09050E0080030203650206BE75BC
:070517001600E5174202E5A2
:06051E00184203E518C5B8
:070524001725E0C51733F5B0
:0D052B00188B0778008A018906E93395E0F6
:0D053800FDEF6206E862058E15C002C003EB
:0E054500C004C007C000C00112028CD001D05B
:0E05530000D007D004D003D0027582A0C002F1
:0E056100C003C004C007C000C0011202B6D023
:0E056F0001D000D007D004D003D0028F058D3C
:0E057D0082C002C003C004C005C0011202B655
:0E058B00D001D005D004D003D0028982C00276
:0E059900C003C004C005C0011202B6D001D0DC
:0D05A70005D004D003D002851582C002C02B
:0E05B40003C004C005C0011202B6D001D0057C
:0E05C200D004D003D002C002C003C004C005A4
:0E05D000C0011202A1D001D005D004D003D08A
:0E05DE0002D2927E000EC002C003C004C0050F
:0E05EC00C006C00112028CD001D006D005D08E
:0E05FA0004D003D0027582A0C002C003C0046A
:0E060800C005C006C0011202B6E582D001D0C6
:0E06160006D005D004D003D002FC7003EE70B5
:0E062400BEC2928D82C002C003C006C0011289
:0E06320002B6D001D006D003D0028982C002E9
:0E064000C003C0061202B6D006D003D002C01E
:0E064E0002C003C00612028CD006D003D002F8
:0E065C007582A1C002C003C0061202B6D0060D
:0E066A00D003D002758200C002C003C0061289
:0D06780002E9E582D006D003D002F514C0DF
:0E06850002C003C0061202A1D006D003D002AC
:06069300E515B514260573
:0C0699001690B000EEF090A000E516F006
:0E06A500907530C002C003120038D003D0029E
:0E06B300BAFF05BBFF0280030205198A04EBA3
:0E06C100C313CC13CCFD74012504FAE43505F7
:0E06CF00FB8A82EBA2E7C58233C58233C58267
:0D06DD005401F583750E001200A390A006D5
:0E06EA007401F09003E812003890A006E4F0CE
:0E06F800120046AA82BA0C0280F62212008975
:0D07060090A0007412F090B0007434F090D8
:0E071300A004E4F0120046AA82BA0C0050E5E1
:0D072100904E20120038120342904E20121C
:05072E00003880D42218
:0E07330041A042A1E045A3A4A5A64BA74D48B6
:0E0741004FA8504354A9AA58E1ABACE2ADAEAC
:0E074F0062AFB0B161B2B3B4E365B6B7B8B98A
:0E075D00BABBBCBD6FBEB0B1B2B3B4B5B6B7D7
:0E076B00B8B9BABBBCBDBEBFC0C1C2C3C4C515
:0E077900C6C7C8C9CACBCCCDCECFD0D1D2D343
:0E078700D4D5D6D7D8D9DADBDCDDDEDF70635F
:0E079500BF79E478E5C0C1E6C2C3C4C5C6C7DB
:0E07A300F0F1F2F3F4F5F6F7F8F9FAFBFCFDCD
:0207B100FEFF49
:0507B3007A10E4FBFCDC
:0E07B800E58225E0F582E58333F583EB33FB24
:0C07C600EC33FCEB9519F5F0EC951A40B3
:0707D20006FCABF0438201BD
:0307D900DADD2244
:0307DC0075820023
:0107DF0022F7
:0807E000E519451A60467A0193
:0707E800E51925E0F519E514
:0907EF001A334012F51AE5829557
:0A07F80019E583951A40030A80E614
:03080200C3E51A31
:0708050013F51AE51913F5C4
:01080C0019D2
:0C080D00C3E5829519F5F0E583951A40CB
:0608190005F58385F08265
:07081F00C3E51A13F51AE509
:060826001913F519DAE1D7
:01082C0022A9
:0E082D00C8C0E0E5F0601114601314601314ED
:0A083B0060131414600474FF800EB3
:05084500A882E6800915
:03084A00E0800645
:03084D0093800392
:03085000A882E299
:04085300F8D0E0C831
:01085700227E
:00000001FF
