:02000000222BB1
:1006440083014E2B003083128C0000308D000E1C71
:100654002C2B2D2B332B10088C0703188D0A110813
:100664008D0701300310900D910DFF3E031D342BB7
:10067400013003108F0C8E0CFF3E031D3B2B0F0823
:100684000E04031D462B472B292B0D088F018F07C2
:100694000C088E018E070800033083168E00043088
:1006A4009300013092000E0883129B009C011B08EA
:1006B4008E001C088F008316130883129D009E0170
:1006C4001D0890001E0891002423831383120F0831
:1006D400980198070E089701970704309900003095
:1006E4009A008F2383138312170883168D00110831
:1006F400063E83129700003003180130980008303A
:10070400990000309A008F238313831217088316ED
:100714008F000D080F059000002803100030031807
:100724000130831294009A1F982B992BA12B9909BD
:100734009A09990A03199A0A94010314940D981FAB
:10074400A42BA52BAE2B97099809970A0319980A8D
:100754000130920012089406003095000030960093
:100764001A0819040319B72BB82BF02B930103149F
:10077400930DC72B01300310990D9A0DFF3E031DF5
:10078400BD2B01309200120893079A1FCA2BCB2B62
:10079400BC2B01300310950D960DFF3E031DCC2B91
:1007A4001A081802031DD82B19081702031CDB2B87
:1007B400DC2BE32B190897021A08031C98039802F0
:1007C4001514013003109A0C990CFF3E031DE42B01
:1007D40001309302031DEF2BF02BCB2B1408031DC8
:1007E400F42BF92B95099609950A0319960A16080C
:0C07F40098019807150897019707080066
:00000001FF
