:0400000002034B327A
:0100040032C9
:01000C0032C1
:0100140032B9
:01001C0032B1
:0100240032A9
:0B034B007581131202FAE582600302C4
:050356000033740044B7
:06035B0000602974B024CB
:0503610000F9740334F3
:0603660000FA9003B078DC
:0C036C000075A000E493F2A308B80002A2
:0E03780005A0E582B501F1E583B502EC75A0A4
:0E038600FF90C000E4F090A004E4F090A00608
:0E039400E4F09080037480F0908000E4F0901C
:0B03A200800174FFF090800274FFF0F7
:0303AD0002003318
:0E0033001202A480FEAA82AB831ABAFF011B40
:0E004100EA4B70F72278009090FEE030E01558
:0E004F000830E1110830E20D0830E30908E541
:0E005D008223F582B4F7E7888222120046E57E
:0C006B0082FAB508028002800C0509E54D
:0C00770009600280078A82800875090079
:0C0083008A0875820C2290A006E4F09020
:0E008F008000F0908001F090800274FFF090ED
:0D009D00A004740FF022AA82AB837C0A7DC0
:0C00AA00008C007C04E4F51275110A8A39
:0E00B600828B83C002C003C004C005C00012CC
:0E00C40002FEAE82AF83D000D005D004D00380
:0C00D200D002E4F51275110A8A828B83BB
:0D00DE00C002C003C004C005C006C000126F
:0E00EB0002D1E5828583F0D000D006D005D08A
:0E00F90004D003D002FAABF0A60608DC0280A9
:0E010700030200AF7A03188603EB700AED25A1
:0D011500E0FB74014BFDDAF090A004E50E54
:0C0122004DF0E50DC454F0FAE50C42026B
:0C012E0090A000EAF0E50BC454F0FAE5E4
:0D013A000A420290A001EAF022C2927A96D9
:0E014700DAFED2927A1EDAFEE4A29233FA7B3E
:0E01550078DBFE8A8222C292D2927A02DAFE11
:0E016300E4A29233FA7B14DBFE8A8222AA8287
:0E017100C292EA6002D2927A14DAFED2927A38
:0E017F0002DAFE227A007B08EAC313FAC002FD
:0E018D00C00312015BE582D003D00260034381
:0E019B000280DBE88A8222AA827B01EB5AF501
:0E01A90082C002C00312016FD003D002EB250A
:0E01B700E0FB70EB221201437582CC1201A214
:0E01C50075824E1201A27582001201A275828F
:0E01D300001201A275821F1201A2227A80C0C2
:0E01E10002120143E582D00260030202637540
:0E01EF0082CCC0021201A2D002758244C0026E
:0E01FD001201A2D002C00212015BE582D00204
:0E020B0060F5C002120143D0027582CCC00221
:0E0219001201A2D0027582BEC0021201A2D054
:0D022700027B00BB0200501BE503240FF812
:0E023400C002C003C000120183E582D000D0DA
:0C02420003D002A6E00B80E0AB0FAC1074
:0E024E00ECC4CBC4540F6BCB540FCB6BCB3036
:0E025C00E30244F0FC8B028A8222120143E589
:0E026A008270261201BC1201DEE582FA30E736
:0E02780008C3E49AFA7B1080027B00EA3395FB
:0D028600E0FC8B0E8A828C831200A38006A0
:0E02930090A00474FFF0120046AA82BA0C027A
:0E02A10080C32290A0007412F090B00074345C
:0E02AF00F090A004E4F0120046AA82BA0C00FF
:0E02BD0050E5904E20120038120266904E203E
:0602CB0012003880D4226D
:0502D1007A10E4FBFCC3
:0E02D600E58225E0F582E58333F583EB33FB0B
:0C02E400EC33FCEB9511F5F0EC951240AA
:0702F00006FCABF0438201A4
:0302F700DADD222B
:0302FA007582000A
:0102FD0022DE
:0802FE00E511451260467A018A
:07030600E51125E0F511E50A
:09030D0012334012F512E582954D
:0A03160011E583951240030A80E60A
:03032000C3E51220
:0703230013F512E51113F5BB
:01032A0011C1
:0C032B00C3E5829511F5F0E583951240C2
:0603370005F58385F0824C
:07033D00C3E51213F512E500
:060344001113F511DAE1CE
:01034A002290
:00000001FF
