:040000000203BC3209
:0100040032C9
:01000C0032C1
:0100140032B9
:01001C0032B1
:0100240032A9
:0B03BC00758119120340E58260030206
:0503C700003374004446
:0603CC00006029742124E9
:0503D20000F974043481
:0603D70000FA90042178F9
:0C03DD004075A000E493F2A308B80002F1
:0E03E90005A0E582B501F1E583B502EC75A033
:0E03F700FF90C000E4F090A004E4F090A00697
:0E040500E4F09080037480F0908000E4F090AA
:0B041300800174FFF090800274FFF085
:03041E00020033A6
:0E0033001202E780FEAA82AB831ABAFF011BFD
:0E004100EA4B70F72278009090FEE030E01558
:0E004F000830E1110830E20D0830E30908E541
:0E005D008223F582B4F7E7888222120046E57E
:0C006B0082FAB508028002800C0509E54D
:0C00770009600280078A82800875090079
:0C0083008A0875820C2290A006E4F09020
:0E008F008000F0908001F090800274FFF090ED
:0D009D00A004740FF022AA82AB837C0A7DC0
:0C00AA00008C007C04E4F51875170A8A2D
:0E00B600828B83C002C003C004C005C00012CC
:0E00C4000344AE82AF83D000D005D004D00339
:0C00D200D002E4F51875170A8A828B83AF
:0D00DE00C002C003C004C005C006C000126F
:0E00EB000317E5828583F0D000D006D005D043
:0E00F90004D003D002FAABF0A60608DC0280A9
:0E010700030200AF7A03188603EB700AED25A1
:0D011500E0FB74014BFDDAF090A004E50E54
:0C0122004DF0E50DC454F0FAE50C42026B
:0C012E0090A000EAF0E50BC454F0FAE5E4
:0D013A000A420290A001EAF02290753012F6
:0E01470000389080047430F09001C21200382D
:0D0155009080047430F0900001120038908A
:0D01620080047430F022908004740CF09042
:0E016F0000011200389080047406F090000128
:0D017D001200389080047401F0900096127A
:0E018A0000389080047438F09000961200380F
:0C01980022AA82C3740395174028E517C3
:0901A40025E025179001AC73025F
:0601AD0001B80201BD02D1
:0601B30001C20201C77544
:0A01B9001700800D751740800875CF
:0A01C300170A800375174AE50225AC
:0A01CD00179080044480F022850F93
:0501D70017120199AAB6
:0401DC0010AB11ACA7
:0D01E000128A828B838CF0120391FDA3AA7A
:0E01ED0082AB83ACF08D06ED6007908005EECE
:0C01FB00F080E322E4FAFBFCF516F51599
:0D0207007F00BF2000501675F002EFA42408
:0C02140000F582E5F03400F583E4F0A36F
:0E022000F00F80E590F000E4F07F007880E8B9
:0E022E004F90F000F0790AD9FE309703E84FA8
:0E023C00FFE8C313F98900E870E7790075F058
:0C024A0002EAA42400FDE5F03400FE8D63
:0C025600828E83E0F513A3E0F5148D8286
:0E0262008E83EFF0A3E9F00A75F020EA84AA7B
:0E027000F0E5072503FDE5013504FEEDC3951D
:09027E0013FBEE9514FC7401253C
:0502870015F515E4353A
:04028C0016F516E568
:0C02900015B46404E516600280318B0791
:0E029C00ECC403CFC40354076FCF5407CF6FD9
:0D02AA00CFF9750E008F828983C002C0035A
:0E02B700C004C0001200A3D000D004D003D0B9
:0C02C50002E4F516F515C002C003C004E9
:0E02D100C000120046AD82D000D004D003D091
:0E02DF0002BD0C030202242212008990A0002E
:0E02ED007412F090B0007434F090A004E4F0AD
:0E02FB00120046AA82BA0C0050E5904E201266
:0903090000381201FF904E201291
:05031200003880D42238
:050317007A10E4FBFC7C
:0E031C00E58225E0F582E58333F583EB33FBC4
:0C032A00EC33FCEB9517F5F0EC95184057
:0703360006FCABF04382015D
:03033D00DADD22E4
:03034000758200C3
:010343002297
:08034400E517451860467A0137
:07034C00E51725E0F517E5B8
:0903530018334012F518E58295FB
:0A035C0017E583951840030A80E6B8
:03036600C3E518D4
:0703690013F518E51713F569
:010370001775
:0C037100C3E5829517F5F0E58395184070
:06037D0005F58385F08206
:07038300C3E51813F518E5AE
:06038A001713F517DAE17C
:01039000224A
:0E039100C8C0E0E5F06011146013146013148E
:0A039F0060131414600474FF800E54
:0503A900A882E68009B6
:0303AE00E08006E6
:0303B10093800333
:0303B400A882E23A
:0403B700F8D0E0C8D2
:0103BB00221F
:00000001FF
